:020000040800F2
:10000000D82C002001010008990800089108000878
:1000100095080008490100082D170008000000009D
:100020000000000000000000000000003F0F00087A
:1000300057030008000000000D090008A110000887
:100040001B0100081B0100081B0100081B01000820
:100050001B0100081B0100081B0100081B01000810
:100060001B0100081B0100081B0100081B01000800
:100070001B0100084D0100081B0100081B010008BE
:100080001B0100081B0100081B0100081B010008E0
:100090001B0100081B0100081B0100081B010008D0
:1000A0001B0100081B0100081B01000805110008C6
:1000B000291100081B0100081B0100081B01000892
:1000C0001B0100081B0100081B0100081B010008A0
:1000D0001B0100081B0100081B0100081B01000890
:1000E0001B0100081B0100081B010008DFF80CD0F1
:1000F00000F018F800480047F9190008D82C002033
:100100000648804706480047FEE7FEE7FEE7FEE7B1
:10011000FEE7FEE7FEE7FEE7FEE7FEE7A5100008C4
:10012000ED000008064C074D06E0E06840F00103D2
:1001300094E8070098471034AC42F6D3FFF7DAFF93
:10014000081B0008281B000800BFFEE74FF40070E2
:1001500015494860922008633420486313480078AA
:10016000401C124908700846007803281AD1002064
:1001700008700F480088401C0D4908800846008818
:10018000C8280AD100200B4908700949088007498E
:10019000087009480449C86304E00348C06B343060
:1001A0000149C86370470000000002401D000020A4
:1001B0001A0000201C0000203400002001684FF6C7
:1001C000FE72114001600021016041608160C160E8
:1001D0004B49884208D14A490839496841F00F0122
:1001E000474A083A51608AE045491431884208D1AB
:1001F00043490839496841F0F001414A083A5160E1
:100200007DE03F492831884208D13D490839496895
:1002100041F470613A4A083A516070E038493C3123
:10022000884208D136490839496841F47041344A56
:10023000083A516063E032495031884208D1304970
:100240000839496841F470212D4A083A516056E056
:100250002B496431884208D129490839496841F459
:100260007001274A083A516049E0254978318842AF
:1002700008D123490839496841F07061204A083A99
:1002800051603CE01F49884206D1011F096841F0D6
:100290000F01021F116032E01A491431884208D15F
:1002A0001849091F096841F0F001164A121F116030
:1002B00025E014492831884208D11249091F0968EC
:1002C00041F470610F4A121F116018E00D493C3172
:1002D000884208D10B49091F096841F47041094A55
:1002E000121F11600BE007495031884207D10549C0
:1002F000091F096841F47021024A121F11607047FA
:1003000008000240080402401AB103680B4303606E
:1003100002E003688B430360704710B50022026857
:1003200047F6F0739A430C6A8B6823430C692343A6
:100330004C6923438C692343CC6923434C6A234390
:100340008C6A23431A430260CB6843600B68836066
:100350004B68C36010BD7047014642F228324A43E1
:100360004FF0E0235A6101221A6100229A6100BF16
:100370004FF0E022106900F001021AB100F480325F
:10038000002AF5D000224FF0E0231A619A617047ED
:100390002DE9F04186B00225774800687749098841
:1003A00008447749086008460068764909680844A7
:1003B0007449096800EB0108002073490860E902EC
:1003C000724800F061FAC3E00026B3E0A91E704A4B
:1003D000127801FB026101EB080000F035FD0028F6
:1003E0007DD0002799E0002405E000F028FD01A958
:1003F0000855601CC4B2082CF7DB002405E000F0AF
:100400001EFD03A90855601CC4B2032CF7DB00F0E5
:1004100016FD8DF80F009DF80F00202803D19DF8E0
:100420000400E52808D1002403E000F008FD601C6A
:10043000C4B2142CF9DB6EE0002403E000F0FFFCF2
:10044000601CC4B2082CF9DB00F0F9FC0004049035
:1004500000F0F5FC049941EA00600490002403E0F8
:1004600000F0EDFC601CC4B2042CF9DB00F0E7FCEA
:1004700004990843049000F0E2FC049941EA00204A
:10048000049000F0DCFC059000F0D9FC059941EAED
:100490000020059000F0D3FC059941EA004005904A
:1004A00000F0CDFC059941EA006005909DF804003C
:1004B00042282FD19DF8050041282BD19DF8060038
:1004C000442827D19DF80700412823D19DF8080032
:1004D00050281FD19DF8090050281BD100E027E0CB
:1004E0009DF80A004C2815D19DF80B00452811D124
:1004F0009DF80C0042280DD19DF80D00492809D126
:100500009DF80E004E2805D11F4904980860214926
:100510000598086000BF781CC7B2102FFFF663AFC4
:1005200000F08DFC00F08BFC1748006800B106E07D
:10053000701CC6B2164800788642FFF647AF00BF6F
:100540001148006800B108E0284600F025F805468B
:100550006FF0704085427FF437AF00BF4FF4805199
:100560000A4800F093F90848006818B1012006B065
:10057000BDE8F0810020FAE700000020060000201E
:100580000C0000200800002010000020000C01409A
:1005900004000020140000202DE9F041064619480F
:1005A000006800EBD61706F07F080025384600F0FB
:1005B0004BFC18B300241BE044450FD100F03FFC76
:1005C000054600F03CFC45EA002500F038FC45EA11
:1005D000004500F034FC45EA006507E000F02FFC20
:1005E00000F02DFC00F02BFC00F029FC601CC4B2D4
:1005F000802CE1DB00F023FC00F021FC2846BDE864
:10060000F08100000C00002010B54FF480514F48DD
:1006100000F03AF9002000F017FC88B3002403E052
:1006200000F00DFC601C84B2B4F5E37FF8DB00F051
:1006300006FC4749086000F002FC4549096841EAA8
:1006400000204349086000F0FAFB4149096841EA8B
:1006500000403F49086000F0F2FB3D49096841EA6B
:1006600000603B490860201D84B201E000F0E7FB18
:100670002046611C8CB240F202218842F6DB07E082
:10068000FFE74FF48051314800F000F9002010BD21
:100690002F48006800F0D8FB002850D0002403E069
:1006A00000F0CDFB601C84B20D2CF9DB00F0C7FB21
:1006B0002849087000F0C3FB2749088000F0BFFB01
:1006C0002549098841EA002023490880E01C84B2BA
:1006D00001E000F0B4FB2046611C8CB22428F8DB5A
:1006E00000F0ADFB1D49086000F0A9FB1B4909683B
:1006F00041EA00201949086000F0A1FB1749096888
:1007000041EA00401549086000F099FB1349096867
:1007100041EA006011490860201D84B201E000F048
:100720008EFB2046611C8CB240F202218842F6DB2F
:100730004FF48051054800F0A9F80120A7E74FF4D5
:100740008051024800F0A2F80020A0E7000C014010
:100750000000002004000020060000200800002007
:100760002DE9F04102460025002600200023002448
:10077000002791F803C00CF00F0591F803C00CF0AE
:10078000100CBCF1000F03D091F802C04CEA050533
:1007900091F800C0BCF1000F31D0146800202BE0AC
:1007A0004FF0010C0CFA00F3B1F800C00CEA03069C
:1007B0009E4220D183004FF00F0C0CFA03F7BC438C
:1007C00005FA03FC4CEA040491F803C0BCF1280FBD
:1007D00006D14FF0010C0CFA00FCC2F814C00AE07C
:1007E00091F803C0BCF1480F05D14FF0010C0CFA91
:1007F00000FCC2F810C0401C0828D1D31460B1F826
:1008000000C0BCF1FF0F34DD546800202EE000F181
:10081000080C4FF0010808FA0CF3B1F800C00CEA1C
:1008200003069E4221D183004FF00F0C0CFA03F710
:10083000BC4305FA03FC4CEA040491F803C0BCF184
:10084000280F05D100F1080C08FA0CF8C2F8148042
:1008500091F803C0BCF1480F07D100F1080C4FF02C
:10086000010808FA0CF8C2F81080401C0828CED302
:100870005460BDE8F0810246002093680B400BB144
:10088000012000E00020704741617047016170471E
:1008900000BFFEE700BFFEE77047000070B5002113
:1008A00000230F22C47804B3154C246804F4E064D8
:1008B000C4F5E064210AC1F10403CA40447804FA93
:1008C00003F184781440214309010E4C0678A155A8
:1008D000047804F01F050124AC4005786D11AD00CB
:1008E00005F1E025C5F8004109E0047804F01F0592
:1008F0000124AC40044D0678761145F8264070BDC1
:100900000CED00E000E400E080E100E07047000052
:100910002DE9F05F404800684049096808443F49B4
:10092000096800EB010A002600274FF480513C487B
:10093000FFF7AAFF7E2000F02FFBFF2000F02CFB2A
:10094000062000F029FB032000F026FB002000F029
:1009500023FB002000F020FB062000F01DFBFE2002
:1009600000F01AFBF22000F017FBEF2000F014FB60
:100970002C48046849E000253FE0A11E2A4A12786D
:1009800001FB02A1481900F05FFA4FF000092BE0CB
:1009900000F055FA8346F9B2F0B25A4601F010F869
:1009A000701C86B2322E1BD10026781C87B2C82F4D
:1009B00016D1002700BF4FF0E020D0F8108008F0DB
:1009C000010018B108F480300028F4D000204FF066
:1009D000E021086115484861012008610020886114
:1009E00009F101001FFA80F9B9F5007FD0DB00F0B2
:1009F00026FA00F024FA681CC5B20B48007885423C
:100A0000BBDB2046FFF7C8FD04466FF07040844210
:100A1000B1D1BDE8F09F00000C00002008000020CC
:100A2000000C0140100000200400002080FC0A009F
:100A300029B1064A52690243044B5A6104E0034A51
:100A400052698243014B5A61704700000010024016
:100A500029B1064AD2690243044BDA6104E0034A31
:100A6000D2698243014BDA617047000000100240F6
:100A700029B1064A12690243044B1A6104E0034A91
:100A800012698243014B1A61704700000010024056
:100A900029B1064A92690243044B9A6104E0034A71
:100AA00092698243014B9A61704700000010024036
:100AB00029B1064AD2680243044BDA6004E0034AD3
:100AC000D2688243014BDA60704700000010024098
:100AD00030B500210022002400232D4D6D6805F063
:100AE0000C0121B1042905D0082923D105E0294DA5
:100AF000056022E0274D05601FE0254D6D6805F477
:100B00007012234D6D6805F48034022505EB924286
:100B10001CB9214D554305600BE01D4D6D6805F472
:100B200000351DB11C4D5543056002E0194D55437C
:100B3000056002E0174D056000BF00BF144D6D68F1
:100B400005F0F0010909154D6B5C0568DD40456055
:100B50000F4D6D6805F4E061090A104D6B5C456846
:100B6000DD4085600A4D6D6805F46051C90A0B4D82
:100B70006B5C4568DD40C560054D6D6805F440411E
:100B8000890B074D6B5CC568B5FBF3F5056130BD9E
:100B90000010024000127A0000093D001E000020F3
:100BA0002E00002030B585B04FF480515A48FFF731
:100BB0006BFE0120FFF7D0FB4FF480515648FFF742
:100BC00065FE0120FFF7C8FB00240CE000BF802178
:100BD000524800F088F90028F9D1FF214F4800F071
:100BE0008EF9601CC4B2102CF0DB0120FFF7B4FBBF
:100BF0004FF480514848FFF747FE952200214020DE
:100C000000F0F0F80446012C07D04FF48051424820
:100C1000FFF73CFE012005B030BD87224FF4D571AF
:100C2000482000F0DFF80446012C3ED102203C4968
:100C3000087000F004F900F002F900F000F900F08B
:100C4000FEF8C82500BF0120FFF786FBFF22002128
:100C5000772000F0C7F8FF224FF08041692000F0B4
:100C6000C1F8044624B1281EA5F10101CDB2EAD194
:100C7000A4B9FF2200217A2000F0B4F800F0DFF8D8
:100C8000044600F0DCF800F0DAF800F0D8F804F0E0
:100C90004000B8B103202249087013E04FF480519E
:100CA0001D48FFF7F3FD0120B5E7052C03D1012016
:100CB0001B49087006E04FF480511748FFF7E6FD26
:100CC0000120A8E74FF480511348FFF7DFFD002112
:100CD000124800F0F3F80020ADF800004FF48270E5
:100CE000ADF802000020ADF80400ADF80600ADF844
:100CF00008004FF40070ADF80A000020ADF80C00B9
:100D0000ADF80E006946054800F0FBF801210348E4
:100D100000F0D4F800207EE7000C014000380040CD
:100D20001800002000B587B04FF42040ADF8040053
:100D300003208DF8060018208DF8070001A91D4832
:100D4000FFF70EFD4FF48040ADF8040004208DF84D
:100D5000070001A91748FFF703FD4FF48050ADF8D5
:100D6000040010208DF8070001A91248FFF7F8FCD5
:100D70000020ADF808004FF48270ADF80A000020A2
:100D8000ADF80C00ADF80E00ADF810004FF4007097
:100D9000ADF812003820ADF814000020ADF81600B0
:100DA00002A9054800F0ADF80121034800F086F8DB
:100DB00007B000BD000C01400038004010B50446EB
:100DC0002146074800F09BF800BF8021044800F04E
:100DD0008AF80028F9D1024800F08EF8C0B210BDA0
:100DE000003800402DE9F04107460C4616464FF00A
:100DF000C80800F024F83846FFF7E0FF200EFFF7A0
:100E0000DDFFC4F30740FFF7D9FFC4F30720FFF766
:100E1000D5FFE0B2FFF7D2FF3046FFF7CFFF00BFAC
:100E200000F00DF80546FF2D06D1B8F10000A8F13D
:100E3000010101F0FF08F3D12846BDE8F08110B5AB
:100E4000FF20FFF7BBFF10BD70B5054647F23056D7
:100E500013480078032800D06D0200BFFF22294606
:100E60005120FFF7BFFF044624B1301EA6F1010157
:100E70008EB2F3D18CB947F2305600BFFFF7DFFFD7
:100E80000446FE2C04D0301EA6F101018EB2F5D12D
:100E90000EB1012070BD0020FCE70020FAE7000041
:100EA0001800002021B1028842F40052028004E0C0
:100EB00002884DF6FF731A400280704721B1028804
:100EC00042F04002028004E002884FF6BF731A40ED
:100ED000028070471AB183880B43838002E08388C5
:100EE0008B43838070470246002013890B400BB16F
:100EF000012000E000207047014688897047818109
:100F0000704710B50022028802F441520B884C88C9
:100F100023438C882343CC8823430C8923434C8967
:100F200023438C892343CC8923431A430280838B38
:100F30004FF2FF74234083830B8A038210BD7047F6
:100F400000B585B00420ADF8100003208DF8120024
:100F500018208DF8130004A90D48FFF701FC4FF489
:100F6000165000900020ADF80400ADF80600ADF872
:100F70000800ADF80C000820ADF80A0069460548E5
:100F800000F064FB0121034800F046FB05B000BD02
:100F9000000801400044004010B5044621460548C1
:100FA00000F0C0FB00BF8021024800F041FB002898
:100FB000F9D010BD0044004010B500F001F810BD9C
:100FC0000CB50020019000903348006840F4803058
:100FD0003149086000BF3048006800F400300090DC
:100FE0000198401C0190009818B90198B0F5A06FC5
:100FF000F1D12948006800F4003010B101200090C0
:1010000001E0002000900098012843D123480068A7
:1010100040F01000214908600846006820F00300F5
:1010200008600846006840F0020008601A484068FE
:10103000194948600846406848600846406840F4DE
:10104000806048600846406820F47C10486008468C
:10105000406840F4E81048600846006840F080703E
:10106000086000BF0C48006800F000700028F9D04C
:101070000948406820F00300074948600846406876
:1010800040F00200486000BF0348406800F00C00D8
:101090000828F9D10CBD00000010024000200240D9
:1010A0007047000010B51348006840F00100114976
:1010B000086008464068104908400E4948600846E4
:1010C00000680E4908400B4908600846006820F493
:1010D000802008600846406820F4FE0048604FF415
:1010E0001F008860FFF768FF4FF000600449086048
:1010F00010BD0000001002400000FFF8FFFFF6FEE8
:1011000008ED00E00548007810B193200449086319
:101110004FF6FB7003490880704700001C00002058
:1011200000000240102C01400120044908704FF6D5
:10113000EF704FF080410882704700001C000020D3
:1011400021B1028842F00102028004E002884FF6D9
:10115000FE731A400280704731B1B0F8442042F467
:101160000042A0F8442005E0B0F84420C2F30E028B
:10117000A0F844207047000010B504466848844237
:1011800008D10121C014FFF793FC0021E014FFF700
:101190008FFCC4E0B4F1804F08D101210846FFF76D
:1011A00067FC00210120FFF763FCB8E05D48844242
:1011B00008D101210220FFF75BFC00210220FFF78C
:1011C00057FCACE05848844208D101210420FFF7C5
:1011D0004FFC00210420FFF74BFCA0E05348844261
:1011E00008D101210820FFF743FC00210820FFF768
:1011F0003FFC94E04E48844208D101211020FFF7C3
:1012000037FC00211020FFF733FC88E04948844276
:1012100008D101212020FFF72BFC00212020FFF71F
:1012200027FC7CE04448844208D101214014FFF7A8
:101230003FFC00216014FFF73BFC70E03F48844214
:1012400009D10121C804FFF733FC00214FF400202D
:10125000FFF72EFC63E03A48844209D101210805DA
:10126000FFF726FC00214FF48010FFF721FC56E029
:101270003448844209D101214805FFF719FC0021B7
:101280004FF40010FFF714FC49E02F48844208D1C6
:1012900001214020FFF7ECFB00214020FFF7E8FB95
:1012A0003DE02A48844208D101218020FFF7E0FB7D
:1012B00000218020FFF7DCFB31E02548844208D183
:1012C00001218015FFF7D4FB0021A015FFF7D0FB0B
:1012D00025E02048844209D101210804FFF7E8FBFA
:1012E00000214FF48030FFF7E3FB18E01A488442F6
:1012F00009D101214804FFF7DBFB00214FF4003046
:10130000FFF7D6FB0BE01548844208D10121880481
:10131000FFF7CEFB00214FF48020FFF7C9FB10BD83
:10132000002C01400004004000080040000C004078
:10133000001000400014004000340140004C014007
:10134000005001400054014000180040001C0040C3
:10135000002000400040014000440140004801409E
:101360001AB183890B43838102E083898B43838194
:101370007047000070B5002400220023058C4FF652
:10138000FE7635400584028C8388048B4FF68F757A
:101390002C40B51E2C400D882C43751E2A400D890B
:1013A0002A434D882A43144DA8420BD0134DA8421E
:1013B00008D0134DA84205D0124DA84202D0124DBC
:1013C000A84213D14FF6F7752A404D892A434FF6AC
:1013D000FB752A408D882A434FF6FF652B404FF658
:1013E000FF552B408D892B43CD892B43838004836C
:1013F000CD888586028470BD002C014000340140F8
:1014000000400140004401400048014070B5002404
:1014100000220023058C4FF6EF7635400584028CC0
:101420008388048B48F6FF752C404FF6FF452C400F
:101430000D884FF6FF7606EA05252C434FF6DF753B
:101440002A400D8906EA05152A434D8806EA051546
:101450002A43154DA84202D0144DA8421DD14FF683
:101460007F752A404D894FF6FF7606EA05152A4317
:101470004FF6BF752A408D8806EA05152A434FF6B8
:10148000FF352B404FF2FF752B408D8906EA85050D
:101490002B43CD8906EA85052B4383800483CD88C1
:1014A0000587028470BD0000002C0140003401401B
:1014B00070B5002200230024058C4EF6FF763540DF
:1014C0000584038C8488828B48F6FF752A404FF68A
:1014D000FF452A400D884FF6FF7606EA05252A4388
:1014E0004DF6FF752B400D8906EA05352B434D88D7
:1014F00006EA05352B430B4DA84202D00A4DA842FF
:1015000008D14BF6FF752C408D894FF6FF7606EA21
:1015100085152C4384808283CD88A0F840500384B5
:1015200070BD0000002C0140003401400A4600213B
:1015300001894FF68F731940114301817047028969
:101540004FF67F731A40028102890A430281704775
:1015500082884FF68F731A40828082880A43828085
:10156000704702894FF6F8731A40028102890A43D4
:1015700002817047002202881D4B98420ED01D4BFD
:1015800098420BD0B0F1804F08D01B4B984205D049
:101590001A4B984202D01A4B984204D14FF68F73DF
:1015A0001A404B881A43174B984207D0164B984263
:1015B00004D04FF6FF431A40CB881A4302808B8831
:1015C00083850B8803850A4B98420BD0094B9842C0
:1015D00008D00E4B984205D00D4B984202D00D4BCF
:1015E000984201D10B7A0386012383827047000061
:1015F000002C01400034014000040040000800407D
:10160000000C004000100040001400400040014069
:10161000004401400048014021B1828942F4005257
:10162000828104E082894DF6FF731A4082817047FF
:1016300002460020B1F5007F00D100BF13880B40A7
:101640000BB1012000E00020704700002DE9F047B9
:1016500086B005460E460024A24600BFA1460027DC
:10166000B08900B100BF2F462C8A4CF6FF700440B1
:10167000F08804432C82AC894EF6F3100440B08805
:1016800031890843718908430443AC81AC8A4FF621
:10169000FF400440B0890443AC8201A8FFF718FA68
:1016A0001F48874202D1DDF810A001E0DDF80CA050
:1016B000A88900F4004040B10AEBCA0000EB0A1010
:1016C00031684900B0FBF1F807E00AEBCA0000EB13
:1016D0000A1031688900B0FBF1F86420B8FBF0F023
:1016E00004012009642101FB1089A88900F400404D
:1016F00040B1322000EBC900B0FBF1F000F0070070
:10170000044308E0322000EB09106421B0FBF1F043
:1017100000F00F0004432C8106B0BDE8F087000004
:1017200000380140C1F308028280704700BFFEE725
:1017300010B5002010E000210AE0002200EB800339
:1017400003EBC003064C04EB83035A544A1CD1B28A
:101750003429F2DB421CD0B2C828ECDB10BD0000FB
:101760003400002010B500F005F800F079F8FFF71C
:10177000DFFF10BD00B591B03648FEF71FFD3648BB
:1017800000903648019010200290342003900020F1
:1017900004908020059000200690079008904FF458
:1017A0004050099000200A9069462A48FEF7B5FD8E
:1017B0004FF44040ADF82C004FF48270ADF82E008D
:1017C0000020ADF83000ADF83200ADF834004FF431
:1017D0000070ADF836000820ADF838000020ADF8F4
:1017E0003A00ADF83C000BA91B480C38FFF789FB09
:1017F000002119480C38FFF755FB01220221164839
:101800000C38FFF767FB012113480C38FFF756FB34
:101810000D208DF8400000208DF841008DF8420029
:1018200001208DF8430010A8FFF738F80948303838
:10183000006B20F001000749303908633420486309
:101840000648C863012202210248FEF75DFD11B07F
:1018500000BD0000300002400C3001403400002088
:1018600000B589B05548FFF787FC0020ADF814009B
:10187000ADF816004FF40060ADF818000020ADF888
:101880001A008DF81C0005A94C48FFF773FE702064
:10189000ADF804000120ADF806000020ADF8080006
:1018A0009020ADF80A000220ADF80C000020ADF841
:1018B000100001A94148FFF75DFD2020ADF80400AC
:1018C0004FF4B070ADF80A0001A93C48FFF79EFD47
:1018D00001213A48FFF740FC80213848FFF72FFEEE
:1018E00020213648FFF734FE05218807FFF739FE2F
:1018F00000214FF08040FFF719FE40F27120ADF853
:1019000018000020ADF81400ADF81A00ADF816006C
:1019100005A94FF08040FFF72DFE7020ADF80400C0
:101920000120ADF806000220ADF80A00ADF80C0069
:1019300001A94007FFF76AFD2020ADF80400182038
:10194000ADF80A0001A94FF08040FFF7B1FD012179
:101950008807FFF701FC1C208DF8200001208DF87E
:10196000210000208DF8220001208DF8230008A816
:10197000FEF794FF012210218806FFF7F1FC1B20DF
:101980008DF8200001208DF8210000208DF8220024
:1019900001208DF8230008A8FEF780FF0122042112
:1019A0000648FFF7DDFC01218807FFF7C9FB01218D
:1019B0000248FFF7C5FB09B000BD0000002C014044
:1019C00010B501EB810303EBC103024C04EB83036D
:1019D0001A5410BD3400002002E008C8121F08C1CC
:1019E000002AFAD170477047002001E001C1121FA0
:1019F000002AFBD17047000008B50121C802FFF79B
:101A000047F801210846FFF723F801210420FFF7DA
:101A10001FF801210803FFF73BF801218803FFF7B6
:101A200017F801214804FFF713F801210420FFF7FC
:101A30002FF801210820FFF72BF801210846FFF7B6
:101A400027F801210846FEF7F3FF4FF4C370ADF805
:101A5000000018208DF8030003208DF8020069466D
:101A60002848FEF77DFE3020ADF8000010208DF8EC
:101A7000030069462348FEF773FE0120ADF800001D
:101A800048208DF8030069461E48FEF769FEFFF7FF
:101A900057FAFFF767FEFFF745F9FFF783F810B92C
:101AA000FEF7B2FD48B910211648FEF7EFFE2021DF
:101AB0001448FEF7E9FE00BFFEE7FEF769FC48B9EF
:101AC00010211048FEF7E0FE20210E48FEF7DEFE52
:101AD00000BFFEE710210B48FEF7D8FE2021094881
:101AE000FEF7D4FE00BF01210648FEF7C4FE002821
:101AF000F9D110210348FEF7C7FEFEF709FF00BF2A
:101B0000FEE7000000080140281B0008000000203C
:101B100034000000D81900085C1B000834000020C5
:101B2000A42C0000E81900080000000000000000DC
:101B300000000000000000000000000000000000A5
:101B40000000000000000000000001020304010288
:0C1B500003040607080902040608000050
:04000005080000ED02
:00000001FF
